:100000000C9462000C948A000C948A000C948A0070
:100010000C948A000C948A000C948A000C948A0038
:100020000C948A000C948A000C948A000C948A0028
:100030000C948A000C948A000C948A000C948A0018
:100040000C9423020C948A000C94F1010C94CB01C3
:100050000C948A000C948A000C948A000C948A00F8
:100060000C948A000C948A000000000025002800EF
:100070002B0000000000240027002A0000000000E0
:1000800023002600290004040404040404040202DA
:100090000202020203030303030301020408102007
:1000A0004080010204081020010204081020000012
:1000B0000008000201000003040700000000000027
:1000C0000000A30311241FBECFEFD8E0DEBFCDBFD9
:1000D00011E0A0E0B1E0E0EBF7E002C005900D9286
:1000E000AA33B107D9F721E0AAE3B1E001C01D921C
:1000F000A03EB207E1F710E0C2E6D0E004C02197CD
:10010000FE010E94D003C136D107C9F70E946D02DB
:100110000C94D6030C940000AF92BF92CF92DF9262
:10012000EF92FF920F931F93CF93DF936C017B01AC
:100130008B01040F151FEB015E01AE18BF08C0173D
:10014000D10759F06991D601ED91FC910190F081B0
:10015000E02DC6010995892B79F7C501DF91CF9173
:100160001F910F91FF90EF90DF90CF90BF90AF90D5
:100170000895FC01538D448D252F30E0842F90E0AD
:10018000821B930B541710F0CF9608950197089592
:10019000FC01918D828D981761F0A28DAE0FBF2F5B
:1001A000B11D5D968C91928D9F5F9F73928F90E0B1
:1001B00008958FEF9FEF0895FC01918D828D981720
:1001C00031F0828DE80FF11D858D90E008958FEF5D
:1001D0009FEF0895FC01918D228D892F90E0805C26
:1001E0009F4F821B91098F739927089583E491E0B3
:1001F0000E94EA0021E0892B09F420E0822F089573
:1002000080E090E0892B29F00E94F60081110C9487
:1002100000000895FC01A48DA80FB92FB11DA35AA9
:10022000BF4F2C91848D90E001968F739927848F16
:10023000A689B7892C93A089B1898C918370806439
:100240008C93938D848D981306C00288F389E02DDA
:1002500080818F7D80830895EF92FF920F931F938B
:10026000CF93DF93EC0181E0888F9B8D8C8D981369
:100270001AC0E889F989808185FF15C09FB7F89475
:10028000EE89FF896083E889F989808183708064C1
:1002900080839FBF81E090E0DF91CF911F910F910C
:1002A000FF90EF900895F62E0B8D10E00F5F1F4F1B
:1002B0000F731127E02E8C8D8E110CC00FB607FC2A
:1002C000FACFE889F989808185FFF5CFCE010E94B8
:1002D0000A01F1CFEB8DEC0FFD2FF11DE35AFF4F1B
:1002E000F0829FB7F8940B8FEA89FB898081806246
:1002F000CFCFCF93DF93EC01888D8823B9F0AA8903
:10030000BB89E889F9898C9185FD03C0808186FDD0
:100310000DC00FB607FCF7CF8C9185FFF2CF80811F
:1003200085FFEDCFCE010E940A01E9CFDF91CF9189
:1003300008953FB7F89480913F0190914001A091BA
:100340004101B091420126B5A89B05C02F3F19F08D
:100350000196A11DB11D3FBFBA2FA92F982F882745
:10036000BC01CD01620F711D811D911D42E0660F20
:10037000771F881F991F4A95D1F70895FC010190B6
:100380000020E9F73197AF01481B590BBC0183E40A
:1003900091E00C948C001F920F920FB60F921124D3
:1003A0002F933F934F935F936F937F938F939F937D
:1003B000AF93BF93EF93FF9383E491E00E940A0110
:1003C000FF91EF91BF91AF919F918F917F916F912D
:1003D0005F914F913F912F910F900FBE0F901F9003
:1003E00018951F920F920FB60F9211242F938F938F
:1003F0009F93EF93FF93E0915301F091540180811B
:10040000E0915901F0915A0182FD1BC090818091C9
:100410005C018F5F8F7320915D01821741F0E09145
:100420005C01F0E0ED5BFE4F958F80935C01FF91E6
:10043000EF919F918F912F910F900FBE0F901F9072
:1004400018958081F4CF1F920F920FB60F9211244E
:100450002F933F938F939F93AF93BF9380913B01D3
:1004600090913C01A0913D01B0913E0130913A0143
:1004700023E0230F2D3758F50196A11DB11D2093C0
:100480003A0180933B0190933C01A0933D01B093CE
:100490003E0180913F0190914001A0914101B091B6
:1004A00042010196A11DB11D80933F01909340012F
:1004B000A0934101B0934201BF91AF919F918F9161
:1004C0003F912F910F900FBE0F901F90189526E827
:1004D000230F0296A11DB11DD2CFCF93DF93CDB7CD
:1004E000DEB7A1970FB6F894DEBF0FBECDBF7894EC
:1004F00084B5826084BD84B5816084BD85B5826029
:1005000085BD85B5816085BD80916E0081608093D9
:100510006E00109281008091810082608093810042
:100520008091810081608093810080918000816052
:10053000809380008091B10084608093B1008091AD
:10054000B00081608093B00080917A0084608093D5
:100550007A0080917A00826080937A0080917A009C
:10056000816080937A0080917A00806880937A001D
:100570001092C100E0915301F091540182E0808318
:10058000E0914F01F09150011082E0915101F09102
:10059000520180E1808310925B01E0915701F0915C
:1005A000580186E08083E0915501F09156018081E9
:1005B00080618083E0915501F091560180818860CF
:1005C0008083E0915501F09156018081806880839D
:1005D000E0915501F091560180818F7D808307EA7B
:1005E00010E0F801249163E9E62E60E0F62EF701B1
:1005F00084918823C9F090E0880F991FFC01EE5880
:10060000FF4FA591B491FC01E859FF4F45915491DA
:100610009FB7F8943C91822F809583238C93FA01A5
:100620008081282B20839FBF82E191E00E94BE0140
:100630008EE291E00E94BE013BEB232E30E0332E90
:1006400040E0C42E40E0D42E81E391E00E94BE0140
:10065000F1018491F8019491F70124912223C9F0CA
:10066000882359F0833009F457C008F04AC081301C
:1006700009F458C0823009F459C0E22FF0E0EE0FBF
:10068000FF1FE458FF4FA591B4918C91982381E00E
:1006900009F480E019A2805D88A3CE0180960E94B3
:1006A000BE010E9499012B013C0185E0882E912C0E
:1006B000A12CB12C0E94990164197509860997092A
:1006C000683E734081059105A8F3F1E08F1A910807
:1006D000A108B10828EE420E23E0521E611C711CD5
:1006E00081149104A104B10429F7C114D10409F4BF
:1006F000ABCF0E94F600882309F4A6CF0E94000029
:10070000A3CF8730B1F08830D1F0843009F0B5CF75
:10071000809180008F7D03C0809180008F778093CF
:100720008000ABCF84B58F7784BDA7CF84B58F7D94
:10073000FBCF8091B0008F778093B0009ECF8091E7
:10074000B0008F7DF9CFE3E4F1E01382128288EEEE
:1007500093E0A0E0B0E084839583A683B78384E030
:1007600091E09183808385EC90E09587848784EC89
:1007700090E09787868780EC90E0918B808B81EC6E
:1007800090E0938B828B82EC90E0958B848B86EC4F
:1007900090E0978B868B118E128E138E148E089597
:1007A000EE0FFF1F0590F491E02D0994F894FFCF10
:1007B000000000002C018C00B9007901EA00C8009B
:1007C000DC00546869732069732061206D69646975
:1007D00020636F6E74726F6C2074657374000D0A01
:0A07E00000627574746F6E3A200019
:00000001FF
