:100000000C9453000C947B000C947B000C947B00AC
:100010000C947B000C947B000C947B000C947B0074
:100020000C947B000C947B000C947B000C947B0064
:100030000C947B000C947B000C947B000C947B0054
:100040000C9415020C947B000C9483020C945D02BA
:100050000C947B000C947B000C947B000C947B0034
:100060000C947B000C947B0000000000250028000D
:100070002B0000000000240027002A0004040404D0
:100080000404040402020202020203030303030342
:10009000010204081020408001020408102001021F
:1000A000040810207D0311241FBECFEFD8E0DEBF6F
:1000B000CDBF11E0A0E0B1E0EEEAF7E002C00590AC
:1000C0000D92AC31B107D9F721E0ACE1B1E001C04C
:1000D0001D92A23CB207E1F710E0C3E5D0E004C0F6
:1000E0002197FE010E94CF03C235D107C9F70E94B4
:1000F000B0020C94AA030C940000CF93DF9390E01D
:10010000FC01E057FF4F249184589F4FFC018491DC
:100110008823C1F090E0880F991FFC01EE58FF4F33
:10012000C591D491FC01E859FF4FA591B4919FB7B7
:10013000F8943881822F809583238883EC91E22B79
:10014000EC939FBFDF91CF910895789484B582603E
:1001500084BD84B5816084BD85B5826085BD85B56B
:10016000816085BDEEE6F0E0808181608083E1E81A
:10017000F0E0108280818260808380818160808352
:10018000E0E8F0E0808181608083E1EBF0E0808155
:1001900084608083E0EBF0E0808181608083EAE727
:1001A000F0E08081846080838081826080838081B0
:1001B000816080838081806880831092C10008956F
:1001C000CF92DF92EF92FF920F931F93CF93DF9323
:1001D0007C016A0110E000E00C151D0581F0EB01C7
:1001E000D701ED91FC910190F081E02D6991C7015B
:1001F0000995892B21F00F5F1F4FBE01EDCFC8017C
:10020000DF91CF911F910F91FF90EF90DF90CF90F2
:100210000895FC01538D448D252F30E0842F90E00C
:10022000821B930B541710F0CF96089501970895F1
:10023000FC01918D828D981761F0A28DAE0FBF2FBA
:10024000B11D5D968C91928D9F5F9F73928F90E010
:1002500008958FEF9FEF0895FC01918D828D98177F
:1002600031F0828DE80FF11D858D90E008958FEFBC
:100270009FEF0895FC01818D228D90E0805C9F4F5F
:10028000821B91098F739927089585E291E00E945E
:100290003A019C0181E0232B09F480E0089580E07D
:1002A00090E0892B29F00E94450181110C940000F7
:1002B0000895FC01A48DA80FB92FB11DA35ABF4FFB
:1002C0002C91848D90E001968F739927848FA68955
:1002D000B7892C93A089B1898C91837080648C93A9
:1002E000938D848D981306C00288F389E02D808158
:1002F0008F7D80830895EF92FF920F931F93CF938A
:10030000DF93EC01F62E81E0888F9B8D8C8D981306
:100310001AC0E889F989808185FF15C09FB7F894D4
:10032000EE89FF896083E889F98980818370806420
:1003300080839FBF81E090E0DF91CF911F910F916B
:10034000FF90EF9008950B8D10E00F5F1F4F0F731C
:100350001127E02E8C8D8E110CC00FB607FCFACF42
:10036000E889F989808185FFF5CFCE010E94590186
:10037000F1CFEB8DEC0FFD2FF11DE35AFF4FF08213
:100380009FB7F8940B8FEA89FB8980818062D0CF78
:10039000CF93DF93EC01888D8823B9F0AA89BB89BC
:1003A000E889F9898C9185FD03C0808186FD0DC0A7
:1003B0000FB607FCF7CF8C9185FFF2CF808185FFC8
:1003C000EDCFCE010E945901E9CFDF91CF91089581
:1003D0008E3008F08E508770806480937C0080910E
:1003E0007A00806480937A0080917A0086FDFCCF49
:1003F00080917800909179000895BC01009791F068
:10040000FC0101900020E9F73197AF01481B590B1F
:10041000E0912501F09126010280F381E02D85E233
:1004200091E0099490E080E008951F921FB61F921A
:1004300011242F933F938F939F93AF93BF938091FA
:10044000210190912201A0912301B09124013091CA
:10045000200123E0230F2D3750F50196A11DB11D7A
:10046000209320018093210190932201A0932301E6
:10047000B093240180911C0190911D01A0911E0157
:10048000B0911F010196A11DB11D80931C01909395
:100490001D01A0931E01B0931F01BF91AF919F91C9
:1004A0008F913F912F911F901FBE1F90189526E8A6
:1004B000230F0296A11DB11DD3CF1F920F920FB62D
:1004C0000F9211242F933F934F935F936F937F93DA
:1004D0008F939F93AF93BF93EF93FF9385E291E048
:1004E0000E945901FF91EF91BF91AF919F918F9120
:1004F0007F916F915F914F913F912F910F900FBE20
:100500000F901F9018952F932FB72F938F939F9332
:10051000EF93FF93E0913501F09136018081E091F6
:100520003B01F0913C0182FD19C0908180913E0118
:100530008F5F8F7320913F01821741F0E0913E0160
:10054000F0E0EB5DFE4F958F80933E01FF91EF91C0
:100550009F918F912F912FBF2F9118958081F6CF6A
:10056000CDB7DEB7A5970FB6F894DEBF0FBECDBFEF
:100570000E94A5009CE1292E91E0392E02E111E0B4
:1005800022E0D22E32EBE32E46E0F42ED8018C91FD
:100590000E5F1F4F0E947D00E0913501F091360102
:1005A000D082E0913101F09132011082E09133016B
:1005B000F0913401E08210923D01E0913901F09117
:1005C0003A01F082E0913701F09138018081806139
:1005D0008083E0913701F0913801808188608083C9
:1005E000E0913701F0913801808180688083E0914B
:1005F0003701F091380180818F7D8083B1E00C312B
:100600001B0721F68AE0482E512C612C712C02E147
:1006100011E0F80180810E5F1F4F0E94E8014C013C
:10062000092E000CAA08BB0897FF46C0E0912501DF
:10063000F09126010190F081E02D6DE285E291E0DC
:10064000099588279927DC0188199909AA09BB0906
:100650008AA39BA3ACA3BDA319A2DE0191967D0141
:100660006AA17BA18CA19DA1A30192010E94AD036F
:100670008AA19BA1ACA1BDA12AA33BA34CA35DA3CE
:10068000605DF70162937F010A97A105B10540F70C
:10069000C7010E94FD012016310609F0BACF80E0A3
:1006A00090E0892B09F4B3CF0E944501882309F417
:1006B000AECF0E940000ABCF8AA2C92CDA2CAB2CA3
:1006C00019A2CE0181967C016AA17C2D8D2D9A2DD7
:1006D000A30192010E94AD038AA19C2DAD2DBA2DDC
:1006E0002AA3C32ED42EA52E605DF70162937F014D
:1006F0000A97A105B10540F7CBCFE5E2F1E01382FF
:10070000128288EE93E0A0E0B0E084839583A68314
:10071000B78384E091E09183808385EC90E09587B6
:10072000848784EC90E09787868780EC90E0918BBB
:10073000808B81EC90E0938B828B82EC90E0958BA8
:10074000848B86EC90E0978B868B118E128E138EA5
:10075000148E0895F8940C94D503A1E21A2EAA1BC6
:10076000BB1BFD010DC0AA1FBB1FEE1FFF1FA21761
:10077000B307E407F50720F0A21BB30BE40BF50B5E
:10078000661F771F881F991F1A9469F760957095E7
:10079000809590959B01AC01BD01CF010895EE0FAE
:0E07A000FF1F0590F491E02D0994F894FFCF0F
:1007AE00000000007B01E0000901C8013A011801B8
:0C07BE002C0101000200030004000500F3
:00000001FF
